:040000000DEF00F010
:0400080089EF0EF07E
:06001800FF00B3EF14F03D
:1010000000000000000000000000000000000000E0
:1010100000000000000000000000000000000000D0
:1010200000000000000000A8308090D8D0700808B0
:1010300070D0D8908030A85041302E6E6976656CA3
:101040002E76616C3D2564FFFFFF006D794C656471
:101050002E7069633D30FFFFFF006D794C65642E93
:101060007069633D31FFFFFF00000450800B0D6E7F
:10107000045004240F6E03AE40EF08F042EF08F076
:1010800043EF08F00F800F50D8B449EF08F04BEF52
:1010900008F060EF08F00F28D8A451EF08F053EFE4
:1010A00008F05BEF08F0000E016E000E026E000EFD
:1010B000036E000E046E038E000E046E68EF08F0DF
:1010C000000E016E000E026E000E036E000E046E26
:1010D0000850800B0E6E0D500E18D8B472EF08F049
:1010E00074EF08F075EF08F00D8C085008240E6EB0
:1010F00007AE7DEF08F07FEF08F080EF08F00E807C
:101100000E50D8B486EF08F088EF08F09DEF08F095
:101110000E28D8A48EEF08F090EF08F098EF08F0B2
:10112000000E056E000E066E000E076E000E086EB5
:10113000078E000E086EA5EF08F0000E056E000E7B
:10114000066E000E076E000E086E0F500E5CD8B0D3
:10115000ACEF08F0AEEF08F0D5EF08F00DACB3EF50
:1011600008F0B5EF08F0B7EF08F0800E0D1A0FC0C9
:1011700010F00EC00FF010C00EF001C010F005C04E
:1011800001F010C005F002C010F006C002F010C05F
:1011900006F003C010F007C003F010C007F004C051
:1011A00010F008C004F010C008F0000E106E0F50D0
:1011B0000EC009F00A6A095E000E0A5A0ABEEAEF7A
:1011C00008F00A5009E11A0E095CD8A0EAEF08F00D
:1011D000ECEF08F023EF09F00150021003100410A7
:1011E000D8A4F5EF08F0F8EF08F0010EF9EF08F0D9
:1011F000000E106E000E016E000E026E000E036EE9
:10120000000E046E0EC00FF02CEF09F010A00BEFD3
:1012100009F00DEF09F013EF09F0D8901030010933
:10122000106E15EF09F0D890103201A01AEF09F0F6
:101230001CEF09F01DEF09F0108E04340432033264
:10124000023201320F2A0E500F5CD8A02AEF09F0AB
:101250002CEF09F006EF09F00DBC31EF09F033EF88
:1012600009F073EF09F00F50D8A439EF09F03BEF04
:1012700009F045EF09F0000E016E000E026E000E3F
:10128000036E000E046E94EF0AF00550012606501E
:101290000222075003220850042204A052EF09F052
:1012A00054EF09F000EF0AF010A059EF09F05BEFDE
:1012B00009F061EF09F0D89010300109106E63EF6A
:1012C00009F0D890103201A068EF09F06AEF09F038
:1012D0006BEF09F0108E0434043203320232013213
:1012E0000F2A00EF0AF00550015C06500258075023
:1012F00003580450800A096E0850800A0958D8B073
:1013000084EF09F086EF09F0B1EF09F00150055CB8
:10131000096E025006580A6E035007580B6E0450AF
:1013200008580C6EFF0E0924016EFF0E0A20026E93
:10133000FF0E0B20036EFF0E0C20046E800E0D1AA4
:10134000106C1050D8A4A7EF09F0A9EF09F0B9EF7D
:1013500009F0010E0126000E022203220422B9EF39
:1013600009F00550015E0650025A0750035A085012
:10137000045A0150021003100410D8A4C2EF09F05F
:10138000C4EF09F0F9EF09F01050D8A4CAEF09F042
:10139000CCEF09F0F9EF09F0000E016E000E026EBD
:1013A000000E036E000E046E94EF0AF0D890013622
:1013B00002360336043610AEE0EF09F0E2EF09F032
:1013C000E3EF09F0018010A0E8EF09F0EAEF09F07F
:1013D000EEEF09F0D8801036F0EF09F0D890103613
:1013E0000F50D8B4F6EF09F0F8EF09F0F9EF09F073
:1013F0000F0603AEFEEF09F000EF0AF0D6EF09F09A
:10140000000E0E6E10AE07EF0AF009EF0AF021EFA2
:101410000AF010C009F07F0E0916D8B412EF0AF0D6
:1014200014EF0AF018EF0AF0010E0E6E21EF0AF029
:1014300001A01DEF0AF01FEF0AF021EF0AF014EFF0
:101440000AF00E50D8B427EF0AF029EF0AF054EF53
:101450000AF0010E0126000E02220322042204A03B
:1014600034EF0AF036EF0AF054EF0AF001C009F049
:1014700002C00AF003C00BF004C00CF00C340C32B4
:101480000B320A32093209C001F00AC002F00BC067
:1014900003F00CC004F00F28D8B451EF0AF053EF5A
:1014A0000AF054EF0AF00F2A0F28D8B45AEF0AF0C6
:1014B0005CEF0AF064EF0AF00F50D8A462EF0AF074
:1014C00064EF0AF076EF0AF0000E016E000E026E75
:1014D000000E036E000E046E0F50D8A472EF0AF0D7
:1014E00074EF0AF076EF0AF0000E0D6E0FA07BEF9E
:1014F0000AF07DEF0AF080EF0AF0038E81EF0AF028
:10150000039ED8900F30046E0DAE89EF0AF08BEF7A
:101510000AF08CEF0AF0048E01C001F002C002F064
:1015200003C003F004C004F012001C50800B256EB1
:101530001C501C242B6E1BAEA0EF0AF0A2EF0AF089
:10154000A3EF0AF02B802B50D8B4A9EF0AF0ABEF31
:101550000AF0BEEF0AF02B28D8A4B1EF0AF0B3EFDF
:101560000AF0BBEF0AF0000E196E000E1A6E000EA4
:101570001B6E000E1C6E1B8EC6EF0AF0000E196E5D
:10158000000E1A6E000E1B6E000E1C6E2050800B9B
:10159000251A205020242A6E1FAED1EF0AF0D3EF77
:1015A0000AF0D4EF0AF02A802A50D8B4DAEF0AF011
:1015B000DCEF0AF0EFEF0AF02A28D8A4E2EF0AF0F5
:1015C000E4EF0AF0ECEF0AF0000E1D6E000E1E6E46
:1015D000000E1F6E000E206E1F8EF7EF0AF0000E39
:1015E0001D6E000E1E6E000E1F6E000E206E2A5025
:1015F000D8B4FDEF0AF0FFEF0AF007EF0BF02B5025
:10160000D8A405EF0BF007EF0BF011EF0BF0000E75
:10161000196E000E1A6E000E1B6E000E1C6EBBEFD4
:101620000CF01F5019026F00CCFF30F06F00D0FF9C
:1016300031F03050266E276A286A296A31502C6EA4
:101640002D6A2E6A2F6A1E501A026F00CCFF30F0EE
:101650006F00D0FF31F030502626000E27222822BE
:10166000292231502C26000E2D222E222F221D50F1
:101670001B026F00CCFF30F06F00D0FF31F0305014
:101680002626000E27222822292231502C26000E41
:101690002D222E222F2228C029F027C028F026C074
:1016A00027F0266A1D501A026F00CCFF30F06F0041
:1016B000D0FF31F03050262631502722000E28224C
:1016C000000E29221E5019026F00CCFF30F06F006F
:1016D000D0FF31F03050262631502722000E28222C
:1016E000000E292228C029F027C028F026C027F0A4
:1016F000266A1D5019026F00CCFF30F06F00D0FF3A
:1017000031F03050262631502722000E2822000EBC
:1017100029221F501A026F00CCFF30F06F00D0FF5B
:1017200031F030502C2631502D22000E2E22000E8A
:101730002F221E501B026F00CCFF30F06F00D0FF35
:1017400031F030502C2631502D22000E2E22000E6A
:101750002F221F501B026F00CCFF30F06F00D0FF14
:1017600031F03050216E3150226E236A246A23C03A
:1017700024F022C023F021C022F0216A21502C261F
:1017800022502D2223502E2224502F2226C021F019
:1017900027C022F028C023F029C024F0190ED6EF6C
:1017A0000BF0D8902432233222322132E82ED1EFAE
:1017B0000BF021502C2622502D2223502E22245073
:1017C0002F2228C029F027C028F026C027F0266A3B
:1017D0002A502BC021F0226A2126000E2222820EDE
:1017E0002124306EFF0E2220316E0CEF0CF0D890C9
:1017F0002C362D362E362F3629AE01EF0CF003EFA6
:101800000CF004EF0CF02C80D890263627362836C2
:1018100029363006D8A031062EAE11EF0CF013EFAA
:101820000CF0F7EF0BF0000E2A6E29AE1AEF0CF059
:101830001CEF0CF040EF0CF0FF0E2614216EFF0E93
:101840002714226EFF0E2814236E7F0E2914246E97
:101850002150221023102410D8B431EF0CF033EFB4
:101860000CF037EF0CF0010E2A6E40EF0CF02CA0BC
:101870003CEF0CF03EEF0CF040EF0CF033EF0CF0CF
:101880002A50D8B446EF0CF048EF0CF06CEF0CF097
:10189000010E2C26000E2D222E222F222FA053EFD8
:1018A0000CF055EF0CF06CEF0CF02CC021F02DC0BB
:1018B00022F02EC023F02FC024F02434243223320F
:1018C0002232213221C02CF022C02DF023C02EF074
:1018D00024C02FF0304A312A31BE77EF0CF031505E
:1018E00008E13028D8A077EF0CF079EF0CF083EF07
:1018F0000CF0000E2C6E000E2D6E800E2E6E7F0EE4
:101900002F6EB1EF0CF031BE90EF0CF0315006E1CC
:101910003004D8B08EEF0CF090EF0CF09CEF0CF090
:10192000000E2C6E000E2D6E000E2E6E000E2F6E11
:10193000000E256EB1EF0CF030C02BF0FF0E2C1610
:10194000FF0E2D167F0E2E16000E2F162BA0ABEFBE
:101950000CF0ADEF0CF0AEEF0CF02E8ED8902B30DB
:101960002F6E25502F122CC019F02DC01AF02EC04A
:101970001BF02FC01CF012003550800B426E35500A
:101980003524496E34AEC7EF0CF0C9EF0CF0CAEF46
:101990000CF049804950D8B4D0EF0CF0D2EF0CF0E5
:1019A000E7EF0CF04928D8A4D8EF0CF0DAEF0CF0F0
:1019B000E2EF0CF0000E326E000E336E000E346E4D
:1019C000000E356E348E000E356EEFEF0CF0000E0B
:1019D000326E000E336E000E346E000E356E3950CE
:1019E000800B421A395039244A6E38AEFAEF0CF0A7
:1019F000FCEF0CF0FDEF0CF04A804A50D8B403EF36
:101A00000DF005EF0DF01AEF0DF04A28D8A40BEFFA
:101A10000DF00DEF0DF015EF0DF0000E366E000E0F
:101A2000376E000E386E000E396E388E000E396E2D
:101A300022EF0DF0000E366E000E376E000E386E7F
:101A4000000E396E3650371038103910D8A42BEFED
:101A50000DF02DEF0DF045EF0DF0000E326E000E83
:101A6000336E000E346E000E356E800E34127F0E13
:101A700035124250351232C032F033C033F034C028
:101A800034F035C035F088EF0EF04950D8A44BEF54
:101A90000DF04DEF0DF057EF0DF0000E326E000E11
:101AA000336E000E346E000E356E88EF0EF04A5025
:101AB00049C03AF03B6A3A5E000E3B5A7F0E3A2428
:101AC000436E000E3B20446E32C03EF033C03FF008
:101AD00034C040F035C041F0000E326E000E336E5F
:101AE000000E346E000E356E000E456E000E466E12
:101AF000000E476E000E486E000E4A6EB8EF0DF0F5
:101B00004A50D8B486EF0DF088EF0DF09FEF0DF03E
:101B1000D8903E363F3640364136D890323633364E
:101B20003436353648AE97EF0DF099EF0DF09AEF59
:101B30000DF03280D8904536463647364836365016
:101B40003E5C37503F583850405839504158D8A023
:101B5000ACEF0DF0AEEF0DF0B7EF0DF0488C365056
:101B60003E5E37503F5A3850405A3950415A4A2AFF
:101B7000190E4A64BEEF0DF0C0EF0DF080EF0DF0CE
:101B80003E503F1040104110D8B4C9EF0DF0CBEFDC
:101B90000DF0E3EF0DF04580E3EF0DF0D890323615
:101BA00033363436353648AED8EF0DF0DAEF0DF077
:101BB000DBEF0DF03280D890453646364736483652
:101BC0004306D8A0440634AEE8EF0DF0EAEF0DF07E
:101BD000CEEF0DF0000E4A6E48AEF1EF0DF0F3EFD0
:101BE0000DF017EF0EF0FF0E45143A6EFF0E46147F
:101BF0003B6EFF0E47143C6E7F0E48143D6E3A500C
:101C00003B103C103D10D8B408EF0EF00AEF0EF078
:101C10000EEF0EF0010E4A6E17EF0EF032A013EF2A
:101C20000EF015EF0EF017EF0EF00AEF0EF04A501F
:101C3000D8B41DEF0EF01FEF0EF043EF0EF0010EC3
:101C40003226000E33223422352235A02AEF0EF040
:101C50002CEF0EF043EF0EF032C03AF033C03BF001
:101C600034C03CF035C03DF03D343D323C323B3277
:101C70003A323AC032F03BC033F03CC034F03DC0A1
:101C800035F0434A442A44BE4EEF0EF0445008E17A
:101C90004328D8A04EEF0EF050EF0EF05BEF0EF0A1
:101CA000000E446E4368000E326E000E336E000E5E
:101CB000346E000E356E44BE68EF0EF0445006E1FF
:101CC0004304D8B066EF0EF068EF0EF076EF0EF03A
:101CD000000E446E000E436E000E326E000E336E28
:101CE000000E346E000E356E000E426E43C049F099
:101CF00049A07DEF0EF07FEF0EF082EF0EF0348EF4
:101D000083EF0EF0349ED8904930356E39EF0DF0E8
:101D100012006F00E8FFE7F06F00ECFFE8F06F00E3
:101D2000D8FFE9F06F00DCFFEAF06F00E0FFEBF0B6
:101D30006F00D4FFECF0390199A1A1EF0EF0A3EFF1
:101D40000EF0B8EF0FF0A9A1A8EF0EF0AAEF0EF079
:101D5000B8EF0FF0BEEC15F0060ED7EC15F001C091
:101D600006F002C007F0086A096A000EB8EC10F02D
:101D700006C0B0F007C0B1F008C0B2F009C0B3F0BF
:101D80006F0E1D6E120E1E6E030E1F6E400E206E25
:101D9000B0C019F0B1C01AF0B2C01BF0B3C01CF053
:101DA00095EC0AF019C032F01AC033F01BC034F0C1
:101DB0001CC035F0000E366EF00E376E7F0E386E9A
:101DC000450E396EBCEC0CF032C0ACF033C0ADF057
:101DD00034C0AEF035C0AFF0240E0001E56F010E47
:101DE000E66FD890BA35D96EBB35DA6ED890D93651
:101DF000DA36E551D926E651DA226000B3F2DEFF89
:101E00006000B7F2DEFF6000BBF2DEFF6000BFF2F1
:101E1000DEFFBA4BBB2BA4C001F0A5C002F0A6C0E8
:101E200003F0A7C004F0ACC005F0ADC006F0AEC032
:101E300007F0AFC008F016EC12F0D8B022EF0FF0A8
:101E400024EF0FF02CEF0FF0ACC0A4F0ADC0A5F064
:101E5000AEC0A6F0AFC0A7F00001BB5109E1800EF3
:101E6000BA5DD8A036EF0FF038EF0FF0B8EF0FF0F3
:101E7000000EBB6F000EBA6FA4C001F0A5C002F047
:101E8000A6C003F0A7C004F0F7C005F0F8C006F044
:101E9000F9C007F0FAC008F016EC12F0D8A053EF22
:101EA0000FF055EF0FF0A5EF0FF0000E5B6E000E78
:101EB0005C6EC80E5D6E420E5E6E000E576E000EBA
:101EC000586E000E596E000E5A6E4C0E536E370E41
:101ED000546E290E556E3F0E566E060E4F6E810ED5
:101EE000506E150E516E3F0E526EA4C04BF0A5C041
:101EF0004CF0A6C04DF0A7C04EF098EC12F04BC0CD
:101F0000DBF04CC0DCF04DC0DDF04EC0DEF092ECFA
:101F100011F0DBC0EDF0DCC0EEF0C30E1A6E4B0E1C
:101F20001B6E71EC15F0C30E026E07EC16F0C30EBB
:101F30001A6E370E1B6EEDC01CF0EEC01DF071EC7A
:101F400015F0C30E026E07EC16F0C30E1A6E5A0E91
:101F50001B6E71EC15F0C30E026E07EC16F0000E4E
:101F60000001A46F000EA56F000EA66F000EA76FF4
:101F70006000B3F3F5FF6000AFF3F8FF6000ABF370
:101F8000F7FF6000A7F3F6FF6000A3F3FBFF60001C
:101F90009FF3FAFF11000C50D96EDA6A6F007FFFD1
:101FA000F6FF100EF76EF86A0800F550250AD8A45F
:101FB000DCEF0FF0DEEF0FF0A4EF10F00C50D96E55
:101FC000DA6ADF2A000E0001B56F000EB46FB4C0EC
:101FD0005FF0B669B7690C50D96EDA6ADF50106EDF
:101FE000600043F0F6FF100EF76EF86A0800F55037
:101FF000640AD8B4FEEF0FF000EF10F010EF10F00D
:10200000600043F0F6FF100EF76EF86A0800F55016
:10201000690AD8A40EEF10F010EF10F09EEF10F048
:102020000D50D96EDA6A020EDF26DF5CD96EDA6AED
:102030006F0078FF11F06F0078FF12F00C50D96E2E
:10204000DA6A1028DF6E200E156E12BE2AEF10F02D
:102050002DEF10F0010E2EEF10F0000E0F6E150692
:10206000000E1524D96EDA6A010EDA2211C001F0D1
:1020700012C002F0000E046E0A0E036E77EC13F02D
:1020800001C007F002C008F08BEC15F00750300FCC
:10209000DF6E11C001F012C002F0000E046E0A0ED5
:1020A000036E15EC13F001C011F002C012F01150D4
:1020B0001210D8B45EEF10F060EF10F068EF10F07F
:1020C0001550D8A466EF10F068EF10F02FEF10F065
:1020D0001550D8B46EEF10F070EF10F093EF10F0D1
:1020E0000F50D8B476EF10F078EF10F093EF10F0B7
:1020F0001506000E1524D96EDA6A010EDA222D0EAD
:10210000DF6E93EF10F0000E1524D96EDA6A010E1F
:10211000DA22DF500E6E0E50036E046A0BC005F01B
:1021200025EC14F0152A200E1518D8A49AEF10F0FB
:102130009CEF10F083EF10F0B7EF10F00C50D96E59
:10214000DA6ADF2AB7EF10F00C50D96EDA6A6F0046
:102150007FFFF6FF100EF76EF86A0800F550036E69
:10216000046A0BC005F025EC14F09EEF10F012008D
:102170000E6E0E50D8B4BFEF10F0C1EF10F0E3EFC9
:1021800010F009BEC8EF10F0C6EF10F0E3EF10F04A
:1021900006C00AF007C00BF008C00CF009C00DF033
:1021A0000A1E0B1E0C1E0D1E0A2A000E0B220C22EC
:1021B0000D220AC010F00BC011F00CC012F00DC0BF
:1021C00013F0EBEF10F006C010F007C011F008C0DC
:1021D00012F009C013F00650071008100910D8A417
:1021E000F4EF10F0F6EF10F000EF11F0000E066EB5
:1021F000000E076E000E086E000E096E91EF11F0D2
:10220000960E0F6E0AEF11F00F2AD8901332123289
:1022100011321032000E10140A6E000E11140B6EE3
:10222000000E12140C6EFE0E13140D6E0A500B10DD
:102230000C100D10D8A41FEF11F021EF11F004EFD6
:1022400011F02FEF11F00F2A010E1026000E1122AF
:1022500012221322D8901332123211321032000E91
:1022600010140A6E000E11140B6E000E12140C6E78
:10227000FF0E13140D6E0A500B100C100D10D8A485
:1022800044EF11F046EF11F023EF11F04EEF11F093
:102290000F06D890103611361236133612BE53EF91
:1022A00011F055EF11F05DEF11F0020E0F605BEFD2
:1022B00011F05DEF11F048EF11F00FB062EF11F087
:1022C00064EF11F065EF11F0129ED8900F320FC03D
:1022D0000AF00B6A0C6A0D6A0AC00DF00C6A0B6AF0
:1022E0000A6A0A5010120B5011120C5012120D50A3
:1022F00013120E50D8B47FEF11F081EF11F089EF77
:1023000011F009BE88EF11F086EF11F089EF11F09E
:10231000138E10C006F011C007F012C008F013C0F1
:1023200009F012000001DD35DE35E46FE451D8A478
:102330009CEF11F09EEF11F0A8EF11F0000EDB6F93
:10234000000EDC6F000EDD6F000EDE6F15EF12F079
:10235000DBC0DFF0DCC0E0F0DDC0E1F0DEC0E2F0C9
:10236000200EB8EF11F0D890E233E133E033DF33E1
:10237000E82EB3EF11F0DF51E36FDD8FFF0EDB17B7
:10238000FF0EDC17FF0EDD17000EDE17960EE45F62
:10239000E4BFCFEF11F0CDEF11F0E5EF11F0E45114
:1023A000800A970FD8B0D7EF11F0D9EF11F0DBEF1B
:1023B00011F09EEF11F0D890DE33DD33DC33DB33E8
:1023C000E43FDBEF11F0FDEF11F01F0EE465EBEFE2
:1023D00011F0EDEF11F0F5EF11F09EEF11F0D89044
:1023E000DB37DC37DD37DE37E407E451D8A4FBEF19
:1023F00011F0FDEF11F0EFEF11F0E351D8B403EF5E
:1024000012F005EF12F00DEF12F0DE1FDD1FDC1FE2
:10241000DB6D000EDC23DD23DE23DBC0DBF0DCC064
:10242000DCF0DDC0DDF0DEC0DEF01200000E0114D5
:10243000096E000E02140A6E800E03140B6E7F0EDE
:1024400004140C6E09500A100B100C10D8A42BEFBA
:1024500012F02DEF12F035EF12F0000E016E000EAB
:10246000026E000E036E000E046E000E0514096E5F
:10247000000E06140A6E800E07140B6E7F0E0814F1
:102480000C6E09500A100B100C10D8A44AEF12F071
:102490004CEF12F054EF12F0000E056E000E066EB7
:1024A000000E076E000E086E04AE59EF12F05BEFDF
:1024B00012F064EF12F0016C021ED8B0022A031E63
:1024C000D8B0032A800E045608AE69EF12F06BEF05
:1024D00012F074EF12F0056C061ED8B0062A071E23
:1024E000D8B0072A800E0856000E011A000E021AF4
:1024F000000E031A800E041A000E051A000E061AAA
:10250000000E071A800E081A0550015C065002588A
:102510000750035808500458D8B091EF12F093EFC9
:1025200012F096EF12F0D89097EF12F0D8801200C8
:102530004FC015F050C016F051C017F052C018F03F
:1025400053C011F054C012F055C013F056C014F02F
:1025500012EC15F011C036F012C037F013C038F08D
:1025600014C039F057C015F058C016F059C017F014
:102570005AC018F05BC011F05CC012F05DC013F0DF
:102580005EC014F012EC15F011C01DF012C01EF068
:1025900013C01FF014C020F04FC015F050C016F04B
:1025A00051C017F052C018F04BC011F04CC012F0DF
:1025B0004DC013F04EC014F012EC15F011C019F01C
:1025C00012C01AF013C01BF014C01CF095EC0AF0F6
:1025D00019C032F01AC033F01BC034F01CC035F003
:1025E000BCEC0CF032C0D7F033C0D8F034C0D9F016
:1025F00035C0DAF0D7C001F0D8C002F0D9C003F07E
:10260000DAC004F057C005F058C006F059C007F012
:102610005AC008F035EC08F001C04BF002C04CF095
:1026200003C04DF004C04EF01200000E066E04BE52
:102630001EEF13F01CEF13F024EF13F0036C041ED5
:10264000D8B0042A010E066E02BE2BEF13F029EF5C
:1026500013F031EF13F0016C021ED8B0022A010E04
:10266000061A000E086E000E076E03500410D8B450
:102670003CEF13F03EEF13F066EF13F0010E056E22
:1026800046EF13F0D89003360436052A04AE4BEF1C
:1026900013F04DEF13F042EF13F0D89007360836E1
:1026A0000350015C04500258D8A059EF13F05BEFBF
:1026B00013F060EF13F00350015E0450025A0780DC
:1026C000D89004320332052E4DEF13F00650D8B4E3
:1026D0006CEF13F06EEF13F072EF13F0076C081E3F
:1026E000D8B0082A07C001F008C002F01200000E9E
:1026F000066E02BE80EF13F07EEF13F086EF13F04C
:10270000016C021ED8B0022A010E066E04BE8DEFC7
:1027100013F08BEF13F091EF13F0036C041ED8B09D
:10272000042A03500410D8B498EF13F09AEF13F072
:10273000BEEF13F0010E056EA2EF13F0D890033632
:102740000436052A04AEA7EF13F0A9EF13F09EEFAD
:1027500013F00350015C04500258D8A0B2EF13F0FC
:10276000B4EF13F0B8EF13F00350015E0450025AB7
:10277000D89004320332052EA9EF13F00650D8B4D6
:10278000C4EF13F0C6EF13F0CAEF13F0016C021E92
:10279000D8B0022A01C001F002C002F01200000EFF
:1027A000BE6E000EBD6E000EBA6E000EBB6E000E49
:1027B000BC6E070EC66EC268E10EC36EBB0EC46E61
:1027C000C5683A0170697F0E606FF90E506F070E91
:1027D000806F4069000E716F000E816F000E516FA7
:1027E000000E416F000E616F000E5A6F000E5B6F9E
:1027F000000E6A6F000E6B6F000E7A6F000E7B6F1B
:10280000000E826F000E426F060E526F180E626F3E
:10281000000E726F4369536963697369070E836FB2
:1028200044695469646974690F0E846F0A0EE26F1B
:10283000210E096F220E0A6F0D0E126F130E166F06
:10284000170EE56F090EE16F12000550D8B42BEF9B
:1028500014F02DEF14F035EF14F00550D8A433EF39
:1028600014F035EF14F03AEF14F003509BEC16F02F
:102870007AEF14F00550D96EDA6A0A0ED926DE50C6
:10288000DE10D8B446EF14F048EF14F061EF14F006
:102890000550D96EDA6A0A0ED9260550E16EE26A51
:1028A000030EE126DE50E65CE650800A0A6EDE503A
:1028B000800A0A58D8B05FEF14F061EF14F07AEF95
:1028C00014F00550D96EDA6A030ED926DF50066E71
:1028D0000550D96EDA6ADF500624D96EDA6A6000D4
:1028E0000FF0DFFF0550D96EDA6A030ED926DE2A13
:1028F000000EDD221200000E3D01EC6F000EED6FA8
:10290000000EEE6F000EEF6F000EF06F000EF16F15
:10291000B00EF26F800EF36F000EF46F820EF56F43
:10292000060EF66F000EF76F000EF86F000EF96FCF
:10293000000EFA6F000E0101206F000E216F8CEC6B
:1029400016F0000E0101206F000E216F87EC16F0CB
:10295000000E0101206F000E216F91EC16F0000EA9
:102960000001C26F1200480EF66E2D0EF76E000EBB
:10297000F86E00EEF7F010EE04F009006F00D7FFDC
:10298000EEFFE550E150F9E100EE24F110EE00F227
:10299000EE6AE550E150FCE1E250FAE100EE00F1B0
:1029A000200EEE6AE806FDE100EE60F0770EEE6ABA
:1029B000E806FDE15F6A080ED56E000ED66E000EC9
:1029C000D76E00014EEF16F0000E3E01DE6F000ED6
:1029D000DF6F000EE06F000EE16F000EE46F000E7F
:1029E000E56F000EEA6F000EEC6F000EF16F000E47
:1029F000F36F000EF46F000EF56F000EF66F000E11
:102A0000F76F000EF96F000EFA6F000EFB6F000EED
:102A1000FC6F030EFD6F000EFE6F1F0EFF6F840E26
:102A2000F86F1200000E151A000E161A000E171A73
:102A3000800E181A11C001F012C002F013C003F08A
:102A400014C004F015C005F016C006F017C007F05A
:102A500018C008F035EC08F001C011F002C012F007
:102A600003C013F004C014F0120017C019F041EFB6
:102A700015F016C00BF0190E0C6E18C00DF0CBEC53
:102A80000FF0600067F0F6FF100EF76EF86A0800AE
:102A9000F5500009D8A44FEF15F051EF15F039EFBC
:102AA00015F0000E176E000E166E120020C122F1F6
:102AB00021C123F10101D89023332233D89023334D
:102AC000223322516D6E20C122F1030E2217060E11
:102AD000236FD8902237232F69EF15F022516C6EA7
:102AE00012001C0E1E6E1AC01FF0000E236E000E88
:102AF000226E000E2A6E000E296E1F0E166E1BC06F
:102B000017F01E0E186E35EC15F01A502224D96EEF
:102B1000DA6ADF6A120008BE90EF15F092EF15F046
:102B200098EF15F007C007F008C008F0A4EF15F003
:102B300007C009F008C00AF0091E0A1E094A0A2A3D
:102B400009C007F00AC008F01200A6EC16F01CEC51
:102B500016F02EEC16F0CFEC13F075EC16F0A0EC9E
:102B600016F0F0EC15F0E4EC14F081EC16F069ECE2
:102B700016F03FEC16F07BEC14F012003901A9912D
:102B80000001EF51F011D8B4C8EF15F0CAEF15F0FD
:102B9000D6EF15F002D8D6EF15F00500FA6EEF511A
:102BA000FD6EF051FE6EFF6AFA5012001200056EC3
:102BB000600017F0F1FE3E01F88FF89DF881F8B142
:102BC000E4EF15F0E6EF15F0DFEF15F0F051046ECD
:102BD000036AEF510324016E000E0420026E1200FE
:102BE000030E966E000E956E000E976EF90E936EA4
:102BF000000E926E3901A9919981500E0101206F4A
:102C00002D0E216F96EC16F0B00E946E120010EFA0
:102C100016F00250D96EDA6ADF505CEC16F0022A28
:102C20000250D96EDA6ADF50D8A419EF16F01BEF04
:102C300016F009EF16F01200000E3901C06F000EF9
:102C4000C16F000EC26F000EC36F000EC46F000E86
:102C5000C56F000EC66F000EC76F1200040E3D0157
:102C6000736F800E746F180E756F030E7B6F000EFE
:102C7000796F000E7A6F000E766F6C691200010E8C
:102C8000AE6E000EAD6E000EAF6E7C0EAB6E000E23
:102C9000AA6E3901A495C00EAC6E1200A5EC15F019
:102CA000D28E000E0101216FF90E206F56EC15F047
:102CB00051EF16F00DEF00F0016E3901A3A963EF9B
:102CC00016F065EF16F05DEF16F0600007F0EAFD14
:102CD0001200800E6E6E3E0E6D6E400E6C6E3F01E9
:102CE0005F51FC0B01095F6F1200600E3901D96F53
:102CF000000EDB6F000EDD6F080EDF6F000EDE6F63
:102D00001200880E3E019E6F100E9C6F120020C1B3
:102D1000F3F021C1F4F0120020C1F5F021C1F6F06A
:102D2000120020C1F1F021C1F2F0120020C1EFF039
:102D300021C1F0F01200026E02505CEC16F012009D
:102D40008A0E3E01C16F12000681153FD29A120011
:022D500012006F
:020000040030CA
:0A0000008CFFF7FF9FFFFFFFFFFFDB
:00000001FF
