:040000000DEF00F010
:040008006AEF08F0A3
:06001800FF00A8EF09F053
:1010000000000000000000000000000000000000E0
:1010100000000000000000000000000000000000D0
:101020000000000000000000000EBE6E000EBD6E4D
:10103000000EBA6E000EBB6E000EBC6E070EC66EC2
:10104000C268E10EC36EBB0EC46EC5683A0170691A
:101050007F0E606FF90E506F070E806F4069000EB3
:10106000716F000E816F000E516F000E416F000E08
:10107000616F000E5A6F000E5B6F000E6A6F000EFC
:101080006B6F000E7A6F000E7B6F000E826F000E8A
:10109000426F060E526F180E626F000E726F436938
:1010A000536963697369070E836F4469546964699E
:1010B00074690F0E846F0A0EE26F210E096F220E03
:1010C0000A6F0D0E126F130E166F170EE56F090ED5
:1010D000E16F12006F00E8FF31F06F00ECFF32F0BB
:1010E000390199A176EF08F078EF08F0A4EF08F045
:1010F000A9A17DEF08F07FEF08F0A4EF08F040EC25
:1011000009F025502610D8A488EF08F08AEF08F0DF
:1011100098EF08F0060E27EC09F02CC029F02DC03E
:101120002AF0000E266E010E256EBB86A4EF08F095
:10113000060E27EC09F02CC027F02DC028F0000E79
:10114000266E000E256EBB966000CBF0FBFF6000A4
:10115000C7F0FAFF1100000E3D01EC6F000EED6FBD
:10116000000EEE6F000EEF6F000EF06F000EF16FCD
:10117000B00EF26F800EF36F000EF46F820EF56FFB
:10118000060EF66F000EF76F000EF86F000EF96F87
:10119000000EFA6F000E336E000E346EF0EC09F0A4
:1011A000000E336E000E346EEBEC09F0000E336E61
:1011B000000E346EF5EC09F0000E2B6E1200000EDE
:1011C0003E01DE6F000EDF6F000EE06F000EE16F7C
:1011D000000EE46F000EE56F000EEA6F000EEC6F7C
:1011E000000EF16F000EF36F000EF46F000EF56F3E
:1011F000000EF66F000EF76F000EF96F000EFA6F1B
:10120000000EFB6F000EFC6F030EFD6F000EFE6FF5
:101210001F0EFF6F840EF86F120033C035F034C01C
:1012200036F0D89036323532D890363235323550A5
:101230006D6E33C035F0030E3516060E366ED8903F
:101240003536362E1FEF09F035506C6E1200306EB9
:101250006000C3F0F1FE3E01F88FF89DF881F8B10F
:1012600034EF09F036EF09F02FEF09F0F0512F6E4F
:101270002E6AEF512E242C6E000E2F202D6E1200A0
:101280003901A99137503810D8B449EF09F04BEF24
:1012900009F057EF09F002D857EF09F00500FA6E90
:1012A0003750FD6E3850FE6EFF6AFA501200120081
:1012B00003EC0AF085EC09F097EC09F014EC08F067
:1012C000DFEC09F0FFEC09F06FEC09F0DFEC08F05F
:1012D000B7EC09F0D3EC09F0ABEC08F01200030E08
:1012E000966E000E956E000E976EF90E936E000EC0
:1012F000926E3901A99199810A0E336E140E346EE3
:10130000FAEC09F0B00E946E1200000E3901C06FB5
:10131000000EC16F000EC26F000EC36F000EC46FCF
:10132000000EC56F000EC66F000EC76F1200040ED0
:101330003D01736F800E746F180E756F030E7B6F17
:10134000000E796F000E7A6F000E766F6C691200D6
:1013500000EE01F02B0EEE6AE806FDE1080ED56EF8
:10136000000ED66E000ED76E0001C6EF09F0010E1A
:10137000AE6E000EAD6E000EAF6E7C0EAB6E000E4C
:10138000AA6E3901A495C00EAC6E120058EC09F09B
:10139000D28E000E346EF90E336E0DEC09F0C9EFEB
:1013A00009F00DEF00F0800E6E6E3E0E6D6E400E79
:1013B0006C6E3F015F51FC0B01095F6F1200600E04
:1013C0003901D96F000EDB6F000EDD6F080EDF6F85
:1013D000000EDE6F120033C03BF034C03CF0120050
:1013E00033C03DF034C03EF0120033C039F034C099
:1013F0003AF0120033C037F034C038F01200810EDA
:0C1400003E01C16F1200D29A12001200CF
:020000040030CA
:0A0000008CFFF7FF9FFFFFFFFFFFDB
:00000001FF
