:040000000DEF00F010
:040008009EEF08F06F
:06001800FF007FEF09F07C
:1010000000000000000000000000000000000000E0
:1010100000000000000000000000000000000000D0
:101020000000000000000000000EBE6E000EBD6E4D
:10103000000EBA6E000EBB6E000EBC6E070EC66EC2
:10104000C268E10EC36EBB0EC46EC5683A0170691A
:101050007F0E606FF90E506F070E806F4069000EB3
:10106000716F000E816F000E516F000E416F000E08
:10107000616F000E5A6F000E5B6F000E6A6F000EFC
:101080006B6F000E7A6F000E7B6F000E826F000E8A
:10109000426F060E526F180E626F000E726F436938
:1010A000536963697369070E836F4469546964699E
:1010B00074690F0E846F0A0EE26F210E096F220E03
:1010C0000A6F0D0E126F130E166F170EE56F090ED5
:1010D000E16F1200000E3D01EC6F000EED6F000E8F
:1010E000EE6F000EEF6F000EF06F000EF16FB00E9E
:1010F000F26F800EF36F000EF46F820EF56F060E26
:10110000F66F000EF76F000EF86F000EF96F000E0D
:10111000FA6F000E316E000E326EC7EC09F0000E51
:10112000316E000E326EC2EC09F0000E316E000E10
:10113000326ECCEC09F0000E256E12006F00E8FF55
:101140002FF06F00ECFF30F0390199A1AAEF08F001
:10115000ACEF08F0C8EF08F0A9A1B1EF08F0B3EFC9
:1011600008F0C8EF08F017EC09F0BBB6BAEF08F0CA
:10117000BDEF08F0010EBEEF08F0000EFF0A2E6E64
:101180002E462E462E46BB502E18F70B2E18BB6E41
:101190006000C3F0FBFF6000BFF0FAFF1100000E1B
:1011A0003E01DE6F000EDF6F000EE06F000EE16F9C
:1011B000000EE46F000EE56F000EEA6F000EEC6F9C
:1011C000000EF16F000EF36F000EF46F000EF56F5E
:1011D000000EF66F000EF76F000EF96F000EFA6F3B
:1011E000000EFB6F000EFC6F030EFD6F000EFE6F16
:1011F0001F0EFF6F840EF86F120031C033F032C043
:1012000034F0D89034323332D890343233323350D1
:101210006D6E31C033F0030E3316060E346ED89067
:101220003336342E0FEF09F033506C6E1200390153
:10123000A99126502710D8B420EF09F022EF09F029
:101240002EEF09F002D82EEF09F00500FA6E2650B5
:10125000FD6E2750FE6EFF6AFA5012001200DAECA3
:1012600009F05CEC09F06EEC09F014EC08F0B6EC57
:1012700009F0D6EC09F046EC09F0CFEC08F08EEC62
:1012800009F0AAEC09F06AEC08F01200030E966E61
:10129000000E956E000E976EE40E936E000E926E29
:1012A0003901A9919981B80E316E130E326ED1ECCD
:1012B00009F0B00E946E1200000E3901C06F000EDE
:1012C000C16F000EC26F000EC36F000EC46F000E20
:1012D000C56F000EC66F000EC76F1200040E3D01F1
:1012E000736F800E746F180E756F030E7B6F000E98
:1012F000796F000E7A6F000E766F6C69120000EE47
:1013000001F0250EEE6AE806FDE1080ED56E000E2E
:10131000D66E000ED76E00019DEF09F0010EAE6E85
:10132000000EAD6E000EAF6E7C0EAB6E000EAA6EA0
:101330003901A495C00EAC6E12002FEC09F0D28ECC
:10134000000E326EF90E316EFDEC08F0A0EF09F0E0
:101350000DEF00F0800E6E6E3E0E6D6E400E6C6EE8
:101360003F015F51FC0B01095F6F1200600E3901F4
:10137000D96F000EDB6F000EDD6F080EDF6F000E01
:10138000DE6F120031C02AF032C02BF0120031C0E3
:101390002CF032C02DF0120031C028F032C029F0FC
:1013A000120031C026F032C027F01200810E3E013B
:0A13B000C16F1200D29A1200120061
:020000040030CA
:0A0000008CFFF7FF9FFFFFFFFFFFDB
:00000001FF
